{
  "_format": "hh-sol-artifact-1",
  "contractName": "Token",
  "sourceName": "contracts/Token.sol",
  "abi": [
    {
      "inputs": [
        {
          "internalType": "address",
          "name": "account",
          "type": "address"
        },
        {
          "internalType": "string",
          "name": "repoName",
          "type": "string"
        }
      ],
      "name": "balanceOf",
      "outputs": [
        {
          "internalType": "uint256",
          "name": "",
          "type": "uint256"
        }
      ],
      "stateMutability": "view",
      "type": "function"
    },
    {
      "inputs": [
        {
          "internalType": "string",
          "name": "repoName",
          "type": "string"
        }
      ],
      "name": "getOwners",
      "outputs": [
        {
          "internalType": "address[]",
          "name": "",
          "type": "address[]"
        }
      ],
      "stateMutability": "view",
      "type": "function"
    },
    {
      "inputs": [
        {
          "internalType": "uint256",
          "name": "totalSupply",
          "type": "uint256"
        },
        {
          "internalType": "string",
          "name": "repoName",
          "type": "string"
        }
      ],
      "name": "mint",
      "outputs": [],
      "stateMutability": "nonpayable",
      "type": "function"
    },
    {
      "inputs": [
        {
          "internalType": "address",
          "name": "to",
          "type": "address"
        },
        {
          "internalType": "uint256",
          "name": "amount",
          "type": "uint256"
        },
        {
          "internalType": "string",
          "name": "repoName",
          "type": "string"
        }
      ],
      "name": "transfer",
      "outputs": [],
      "stateMutability": "nonpayable",
      "type": "function"
    }
  ],
  "bytecode": "0x6080604052600060035534801561001557600080fd5b50610d35806100256000396000f3fe608060405234801561001057600080fd5b506004361061004c5760003560e01c806356b8c724146100515780636057d21b1461006d57806377097fc81461009d578063b9b092c8146100b9575b600080fd5b61006b600480360381019061006691906107a9565b6100e9565b005b61008760048036038101906100829190610810565b610493565b60405161009491906109a4565b60405180910390f35b6100b760048036038101906100b29190610851565b61053f565b005b6100d360048036038101906100ce9190610755565b61065e565b6040516100e091906109e6565b60405180910390f35b816000826040516100fa919061098d565b908152602001604051809103902060003373ffffffffffffffffffffffffffffffffffffffff1673ffffffffffffffffffffffffffffffffffffffff168152602001908152602001600020541015610187576040517f08c379a000000000000000000000000000000000000000000000000000000000815260040161017e906109c6565b60405180910390fd5b81600082604051610198919061098d565b908152602001604051809103902060003373ffffffffffffffffffffffffffffffffffffffff1673ffffffffffffffffffffffffffffffffffffffff16815260200190815260200160002060008282546101f29190610b0d565b925050819055506000805b60028360405161020d919061098d565b9081526020016040518091039020548110156102ef57600183604051610233919061098d565b90815260200160405180910390208181548110610279577f4e487b7100000000000000000000000000000000000000000000000000000000600052603260045260246000fd5b9060005260206000200160009054906101000a900473ffffffffffffffffffffffffffffffffffffffff1673ffffffffffffffffffffffffffffffffffffffff168573ffffffffffffffffffffffffffffffffffffffff1614156102dc57600191505b80806102e790610bf0565b9150506101fd565b50806103a957600182604051610305919061098d565b9081526020016040518091039020849080600181540180825580915050600190039060005260206000200160009091909190916101000a81548173ffffffffffffffffffffffffffffffffffffffff021916908373ffffffffffffffffffffffffffffffffffffffff160217905550600282604051610384919061098d565b908152602001604051809103902060008154809291906103a390610bf0565b91905055505b826000836040516103ba919061098d565b908152602001604051809103902060008673ffffffffffffffffffffffffffffffffffffffff1673ffffffffffffffffffffffffffffffffffffffff16815260200190815260200160002060008282546104149190610ab7565b925050819055508260008360405161042c919061098d565b908152602001604051809103902060003373ffffffffffffffffffffffffffffffffffffffff1673ffffffffffffffffffffffffffffffffffffffff16815260200190815260200160002060008282546104869190610b0d565b9250508190555050505050565b60606001826040516104a5919061098d565b908152602001604051809103902080548060200260200160405190810160405280929190818152602001828054801561053357602002820191906000526020600020905b8160009054906101000a900473ffffffffffffffffffffffffffffffffffffffff1673ffffffffffffffffffffffffffffffffffffffff16815260200190600101908083116104e9575b50505050509050919050565b81600082604051610550919061098d565b908152602001604051809103902060003373ffffffffffffffffffffffffffffffffffffffff1673ffffffffffffffffffffffffffffffffffffffff168152602001908152602001600020819055506001816040516105af919061098d565b9081526020016040518091039020339080600181540180825580915050600190039060005260206000200160009091909190916101000a81548173ffffffffffffffffffffffffffffffffffffffff021916908373ffffffffffffffffffffffffffffffffffffffff1602179055506001600282604051610630919061098d565b9081526020016040518091039020819055506003600081548092919061065590610bf0565b91905055505050565b6000808260405161066f919061098d565b908152602001604051809103902060008473ffffffffffffffffffffffffffffffffffffffff1673ffffffffffffffffffffffffffffffffffffffff16815260200190815260200160002054905092915050565b60006106d66106d184610a26565b610a01565b9050828152602081018484840111156106ee57600080fd5b6106f9848285610b7d565b509392505050565b60008135905061071081610cd1565b92915050565b600082601f83011261072757600080fd5b81356107378482602086016106c3565b91505092915050565b60008135905061074f81610ce8565b92915050565b6000806040838503121561076857600080fd5b600061077685828601610701565b925050602083013567ffffffffffffffff81111561079357600080fd5b61079f85828601610716565b9150509250929050565b6000806000606084860312156107be57600080fd5b60006107cc86828701610701565b93505060206107dd86828701610740565b925050604084013567ffffffffffffffff8111156107fa57600080fd5b61080686828701610716565b9150509250925092565b60006020828403121561082257600080fd5b600082013567ffffffffffffffff81111561083c57600080fd5b61084884828501610716565b91505092915050565b6000806040838503121561086457600080fd5b600061087285828601610740565b925050602083013567ffffffffffffffff81111561088f57600080fd5b61089b85828601610716565b9150509250929050565b60006108b183836108bd565b60208301905092915050565b6108c681610b41565b82525050565b60006108d782610a67565b6108e18185610a8a565b93506108ec83610a57565b8060005b8381101561091d57815161090488826108a5565b975061090f83610a7d565b9250506001810190506108f0565b5085935050505092915050565b600061093582610a72565b61093f8185610aac565b935061094f818560208601610b8c565b80840191505092915050565b6000610968601183610a9b565b915061097382610ca8565b602082019050919050565b61098781610b73565b82525050565b6000610999828461092a565b915081905092915050565b600060208201905081810360008301526109be81846108cc565b905092915050565b600060208201905081810360008301526109df8161095b565b9050919050565b60006020820190506109fb600083018461097e565b92915050565b6000610a0b610a1c565b9050610a178282610bbf565b919050565b6000604051905090565b600067ffffffffffffffff821115610a4157610a40610c68565b5b610a4a82610c97565b9050602081019050919050565b6000819050602082019050919050565b600081519050919050565b600081519050919050565b6000602082019050919050565b600082825260208201905092915050565b600082825260208201905092915050565b600081905092915050565b6000610ac282610b73565b9150610acd83610b73565b9250827fffffffffffffffffffffffffffffffffffffffffffffffffffffffffffffffff03821115610b0257610b01610c39565b5b828201905092915050565b6000610b1882610b73565b9150610b2383610b73565b925082821015610b3657610b35610c39565b5b828203905092915050565b6000610b4c82610b53565b9050919050565b600073ffffffffffffffffffffffffffffffffffffffff82169050919050565b6000819050919050565b82818337600083830152505050565b60005b83811015610baa578082015181840152602081019050610b8f565b83811115610bb9576000848401525b50505050565b610bc882610c97565b810181811067ffffffffffffffff82111715610be757610be6610c68565b5b80604052505050565b6000610bfb82610b73565b91507fffffffffffffffffffffffffffffffffffffffffffffffffffffffffffffffff821415610c2e57610c2d610c39565b5b600182019050919050565b7f4e487b7100000000000000000000000000000000000000000000000000000000600052601160045260246000fd5b7f4e487b7100000000000000000000000000000000000000000000000000000000600052604160045260246000fd5b6000601f19601f8301169050919050565b7f4e6f7420656e6f75676820746f6b656e73000000000000000000000000000000600082015250565b610cda81610b41565b8114610ce557600080fd5b50565b610cf181610b73565b8114610cfc57600080fd5b5056fea2646970667358221220d2701e76d9355836cf706bf156846da82817c207c2ca20554cc084eacce65f0264736f6c63430008040033",
  "linkReferences": {},
  "deployedLinkReferences": {}
}