{
  "_format": "hh-sol-artifact-1",
  "contractName": "Token",
  "sourceName": "contracts/Token.sol",
  "abi": [
    {
      "inputs": [
        {
          "internalType": "address",
          "name": "account",
          "type": "address"
        },
        {
          "internalType": "string",
          "name": "repoName",
          "type": "string"
        }
      ],
      "name": "balanceOf",
      "outputs": [
        {
          "internalType": "uint256",
          "name": "",
          "type": "uint256"
        }
      ],
      "stateMutability": "view",
      "type": "function"
    },
    {
      "inputs": [
        {
          "internalType": "string",
          "name": "repoName",
          "type": "string"
        }
      ],
      "name": "getOwners",
      "outputs": [
        {
          "internalType": "address[]",
          "name": "",
          "type": "address[]"
        }
      ],
      "stateMutability": "view",
      "type": "function"
    },
    {
      "inputs": [
        {
          "internalType": "uint256",
          "name": "totalSupply",
          "type": "uint256"
        },
        {
          "internalType": "string",
          "name": "repoName",
          "type": "string"
        }
      ],
      "name": "mint",
      "outputs": [],
      "stateMutability": "nonpayable",
      "type": "function"
    },
    {
      "inputs": [
        {
          "internalType": "address",
          "name": "to",
          "type": "address"
        },
        {
          "internalType": "uint256",
          "name": "amount",
          "type": "uint256"
        },
        {
          "internalType": "string",
          "name": "repoName",
          "type": "string"
        }
      ],
      "name": "transfer",
      "outputs": [],
      "stateMutability": "nonpayable",
      "type": "function"
    }
  ],
  "bytecode": "0x6080604052600060035534801561001557600080fd5b50610da7806100256000396000f3fe608060405234801561001057600080fd5b506004361061004c5760003560e01c806356b8c724146100515780636057d21b1461006d57806377097fc81461009d578063b9b092c8146100b9575b600080fd5b61006b6004803603810190610066919061081b565b6100e9565b005b61008760048036038101906100829190610882565b610505565b6040516100949190610a16565b60405180910390f35b6100b760048036038101906100b291906108c3565b6105b1565b005b6100d360048036038101906100ce91906107c7565b6106d0565b6040516100e09190610a58565b60405180910390f35b816000826040516100fa91906109ff565b908152602001604051809103902060003373ffffffffffffffffffffffffffffffffffffffff1673ffffffffffffffffffffffffffffffffffffffff168152602001908152602001600020541015610187576040517f08c379a000000000000000000000000000000000000000000000000000000000815260040161017e90610a38565b60405180910390fd5b8160008260405161019891906109ff565b908152602001604051809103902060003373ffffffffffffffffffffffffffffffffffffffff1673ffffffffffffffffffffffffffffffffffffffff16815260200190815260200160002060008282546101f29190610b7f565b925050819055508160008260405161020a91906109ff565b908152602001604051809103902060008573ffffffffffffffffffffffffffffffffffffffff1673ffffffffffffffffffffffffffffffffffffffff16815260200190815260200160002060008282546102649190610b29565b925050819055506000805b60028360405161027f91906109ff565b908152602001604051809103902054811015610361576001836040516102a591906109ff565b908152602001604051809103902081815481106102eb577f4e487b7100000000000000000000000000000000000000000000000000000000600052603260045260246000fd5b9060005260206000200160009054906101000a900473ffffffffffffffffffffffffffffffffffffffff1673ffffffffffffffffffffffffffffffffffffffff168573ffffffffffffffffffffffffffffffffffffffff16141561034e57600191505b808061035990610c62565b91505061026f565b508061041b5760018260405161037791906109ff565b9081526020016040518091039020849080600181540180825580915050600190039060005260206000200160009091909190916101000a81548173ffffffffffffffffffffffffffffffffffffffff021916908373ffffffffffffffffffffffffffffffffffffffff1602179055506002826040516103f691906109ff565b9081526020016040518091039020600081548092919061041590610c62565b91905055505b8260008360405161042c91906109ff565b908152602001604051809103902060008673ffffffffffffffffffffffffffffffffffffffff1673ffffffffffffffffffffffffffffffffffffffff16815260200190815260200160002060008282546104869190610b29565b925050819055508260008360405161049e91906109ff565b908152602001604051809103902060003373ffffffffffffffffffffffffffffffffffffffff1673ffffffffffffffffffffffffffffffffffffffff16815260200190815260200160002060008282546104f89190610b7f565b9250508190555050505050565b606060018260405161051791906109ff565b90815260200160405180910390208054806020026020016040519081016040528092919081815260200182805480156105a557602002820191906000526020600020905b8160009054906101000a900473ffffffffffffffffffffffffffffffffffffffff1673ffffffffffffffffffffffffffffffffffffffff168152602001906001019080831161055b575b50505050509050919050565b816000826040516105c291906109ff565b908152602001604051809103902060003373ffffffffffffffffffffffffffffffffffffffff1673ffffffffffffffffffffffffffffffffffffffff1681526020019081526020016000208190555060018160405161062191906109ff565b9081526020016040518091039020339080600181540180825580915050600190039060005260206000200160009091909190916101000a81548173ffffffffffffffffffffffffffffffffffffffff021916908373ffffffffffffffffffffffffffffffffffffffff16021790555060016002826040516106a291906109ff565b908152602001604051809103902081905550600360008154809291906106c790610c62565b91905055505050565b600080826040516106e191906109ff565b908152602001604051809103902060008473ffffffffffffffffffffffffffffffffffffffff1673ffffffffffffffffffffffffffffffffffffffff16815260200190815260200160002054905092915050565b600061074861074384610a98565b610a73565b90508281526020810184848401111561076057600080fd5b61076b848285610bef565b509392505050565b60008135905061078281610d43565b92915050565b600082601f83011261079957600080fd5b81356107a9848260208601610735565b91505092915050565b6000813590506107c181610d5a565b92915050565b600080604083850312156107da57600080fd5b60006107e885828601610773565b925050602083013567ffffffffffffffff81111561080557600080fd5b61081185828601610788565b9150509250929050565b60008060006060848603121561083057600080fd5b600061083e86828701610773565b935050602061084f868287016107b2565b925050604084013567ffffffffffffffff81111561086c57600080fd5b61087886828701610788565b9150509250925092565b60006020828403121561089457600080fd5b600082013567ffffffffffffffff8111156108ae57600080fd5b6108ba84828501610788565b91505092915050565b600080604083850312156108d657600080fd5b60006108e4858286016107b2565b925050602083013567ffffffffffffffff81111561090157600080fd5b61090d85828601610788565b9150509250929050565b6000610923838361092f565b60208301905092915050565b61093881610bb3565b82525050565b600061094982610ad9565b6109538185610afc565b935061095e83610ac9565b8060005b8381101561098f5781516109768882610917565b975061098183610aef565b925050600181019050610962565b5085935050505092915050565b60006109a782610ae4565b6109b18185610b1e565b93506109c1818560208601610bfe565b80840191505092915050565b60006109da601183610b0d565b91506109e582610d1a565b602082019050919050565b6109f981610be5565b82525050565b6000610a0b828461099c565b915081905092915050565b60006020820190508181036000830152610a30818461093e565b905092915050565b60006020820190508181036000830152610a51816109cd565b9050919050565b6000602082019050610a6d60008301846109f0565b92915050565b6000610a7d610a8e565b9050610a898282610c31565b919050565b6000604051905090565b600067ffffffffffffffff821115610ab357610ab2610cda565b5b610abc82610d09565b9050602081019050919050565b6000819050602082019050919050565b600081519050919050565b600081519050919050565b6000602082019050919050565b600082825260208201905092915050565b600082825260208201905092915050565b600081905092915050565b6000610b3482610be5565b9150610b3f83610be5565b9250827fffffffffffffffffffffffffffffffffffffffffffffffffffffffffffffffff03821115610b7457610b73610cab565b5b828201905092915050565b6000610b8a82610be5565b9150610b9583610be5565b925082821015610ba857610ba7610cab565b5b828203905092915050565b6000610bbe82610bc5565b9050919050565b600073ffffffffffffffffffffffffffffffffffffffff82169050919050565b6000819050919050565b82818337600083830152505050565b60005b83811015610c1c578082015181840152602081019050610c01565b83811115610c2b576000848401525b50505050565b610c3a82610d09565b810181811067ffffffffffffffff82111715610c5957610c58610cda565b5b80604052505050565b6000610c6d82610be5565b91507fffffffffffffffffffffffffffffffffffffffffffffffffffffffffffffffff821415610ca057610c9f610cab565b5b600182019050919050565b7f4e487b7100000000000000000000000000000000000000000000000000000000600052601160045260246000fd5b7f4e487b7100000000000000000000000000000000000000000000000000000000600052604160045260246000fd5b6000601f19601f8301169050919050565b7f4e6f7420656e6f75676820746f6b656e73000000000000000000000000000000600082015250565b610d4c81610bb3565b8114610d5757600080fd5b50565b610d6381610be5565b8114610d6e57600080fd5b5056fea2646970667358221220bd6ce25d337d6a0808b9b4e0148906ee42d96ae68bdb8cfd2dbf6f01f22837c064736f6c63430008040033",
  "linkReferences": {},
  "deployedLinkReferences": {}
}